:1000000014C1000043C1000041C100003FC1000015
:100010003DC100003BC1000039C1000037C10000F4
:1000200035C1000033C1000031C100002FC1000004
:100030002DC100002BC1000029C1000027C1000014
:1000400025C10000A6C5000021C100001FC100009D
:100050001DC100001BC1000019C10000C9C400007F
:1000600015C1000013C1000011C100000FC1000044
:100070000DC100000BC1000009C1000007C1000054
:100080005BC5000003C1000001C10000FFC000000B
:10009000FDC00000FBC00000F9C00000F7C0000078
:1000A000F5C00000F3C000001AC50000EFC000005A
:1000B000EDC00000EBC00000E9C00000E3C4000098
:1000C000E5C00000E3C00000E1C00000DFC00000A8
:1000D000DDC00000DBC00000D9C00000D7C00000B8
:1000E000D5C00000B106B406A306A706AD06EB0610
:1000F000B806BC06C206C606CA06D006D406D8068E
:10010000EB06DE06E206E6060000210024002700DA
:100110002A002D0030003300010100000401070116
:100120000A0100002200250028002B002E003100CB
:10013000340002010000050108010B01000020004D
:100140002300260029002C002F00320000010000AF
:10015000030106010901050505050705080808084A
:10016000020202020A0A080804040404010101014F
:10017000010101010303030303030303040707074A
:100180000C0C0C0C0C0C0C0C0202020206060606EF
:10019000060606060B0B0B0B0B0B0B0B01021020BC
:1001A00020080810204010204080020102010804AD
:1001B0000201010204081020408080402010080441
:1001C000020180040201804020100804020108049A
:1001D00002010102040810204080010204081020DE
:1001E000408000000A0B02090C0D0E0807030401F1
:1001F00000000000000000000000000000000000FF
:1002000000000000000000000000000000001211CB
:1002100010000000000000000000000000000000CE
:100220000000000000000000300C11241FBECFEFC2
:10023000D1E2DEBFCDBF00E00CBF12E0A0E0B2E033
:10024000EEE2FEE100E00BBF02C007900D92AA3C77
:10025000B107D9F724E0AAECB2E001C01D92A231A7
:10026000B207E1F711E0C5E1D1E000E006C0219757
:100270000109802FFE010E94030FC431D10780E0E5
:100280000807A9F70E94DB090C94150FB9CECF928D
:10029000DF92EF92FF920F931F93CF93DF936C0146
:1002A0007A018B01C0E0D0E0CE15DF0581F0D801E6
:1002B0006D918D01D601ED91FC910190F081E02DC1
:1002C000C6011995892B11F02196EECF7E01C70149
:1002D000DF91CF911F910F91FF90EF90DF90CF9022
:1002E0000895CF92DF92EF92FF92CF93DF93EC01CC
:1002F000603282E078070CF03DC077FD06C0653BB8
:1003000071052CF064EB70E002C060E070E0898160
:1003100028E830E06901C81AD10887FDD394CC0CD5
:10032000DD1CCC0CDD1C0D2C000CEE08FF088A81B6
:1003300028E532E0281B310987FD3395220F331F52
:10034000220F331FC901330FAA0BBB0B9C01AD0158
:100350002C193D094E095F09DB010E940E0D24EBAB
:1003600030E040E050E00E94E80CC20ED31EE41ED4
:10037000F51EB6013881303380F5298188E890E098
:10038000821B910927FD9395880F991F880F991F4C
:100390006817790784F08A8148E552E0481B5109C3
:1003A00087FD5395440F551F440F551FCB0146172A
:1003B00057070CF4CA010297880F991F4FB7F8949A
:1003C000232F30E0F901EE0FFF1F2E0F3F1FF90121
:1003D000E851FD4F928381834FBFDF91CF91FF9012
:1003E000EF90DF90CF900895089580E090E0089519
:1003F000862F88C6862F642FADC6CF92DF92EF92EC
:10040000FF920F931F93CF93DF936C018B017A01BF
:10041000EC01CC51DD4F888187FF04C0FB011182C4
:10042000108224C02CE02C9DC0012D9D900D112424
:100430002881AC01420F511D27FD5A952091E302FE
:1004400030E04217530794F42881AC01420F511D4C
:1004500027FD5A959A01FA01EE0FFF1F2E0F3F1F3D
:10046000F901E851FD4F208126FD19C088818F5F79
:1004700088832CE02C9DC0012D9D900D1124288196
:10048000AC01420F511D27FD5A952091E30230E047
:1004900042175307B4F428812C303CF112C0288154
:1004A000820F911D27FD9A95FC01EE0FFF1F8E0F05
:1004B0009F1FFC01E851FD4F808160E08F734AD699
:1004C000D5CFF80180819181049680349C4918F43D
:1004D00080E49CE904C0F801808191810496F701D1
:1004E000918380838FEF888344C0F80140815181DC
:1004F0002881BC01620F711D27FD7A959B01FB01CC
:10050000EE0FFF1F2E0F3F1FF901E851FD4F218114
:100510003281240F351FF701318320832881AC01FC
:10052000420F511D27FD5A959A01FA01EE0FFF1F48
:100530002E0F3F1FF901E851FD4F208126FF19C002
:100540002881820F911D27FD9A95FC01EE0FFF1F58
:100550008E0F9F1FFC01E851FD4F808161E08F737A
:10056000DF91CF911F910F91FF90EF90DF90CF908F
:10057000F1C5DF91CF911F910F91FF90EF90DF9028
:10058000CF900895CF93DF93EC0160E08E81E2D5A8
:1005900061E08E81DFD560E08E81DCD58BE891E073
:1005A0000197F1F7DF91CF910895809180039091A9
:1005B0008103892BA1F41092790310927803109291
:1005C000CB021092CA0260E080E023D489E292E07C
:1005D00031D461E081E01DD48AE392E02BC4089518
:1005E000862F642FE5C51F93CF93DF93EC01162F61
:1005F0008881803308F04DC061E0812FD9D5888192
:10060000E82FF0E09F01220F331FE20FF31FE851A4
:10061000FD4F1F739081907C192B108319821A82D1
:100620006CE00E94F70E9CE0899FB001112440E02D
:1006300050E09B01240F351FF901EE0FFF1F2E0F15
:100640003F1FF901E851FD4F908196FD16C04F5FA5
:100650005F4F4C30510569F7813001F510928000F1
:1006600082E0809381001092850010928400B19AFC
:1006700080916F00826080936F00E881F0E0CF018D
:10068000880F991FE80FF91FE851FD4F80818064A2
:1006900080838881DF91CF911F910895823061F42A
:1006A0001092900080939100109295001092940007
:1006B00088BB80937100E1CF833069F41092A00071
:1006C00082E08093A1001092A5001092A40089BB43
:1006D00080937200D2CF8111D0CF1092200182E09E
:1006E0008093210110922501109224018ABB8093EE
:1006F0007300C3CF0E94110FCF92DF92EF92FF924F
:10070000CF932091780330917903232B09F43FC1D3
:100710002091AA033091AB032130310509F03DC18E
:10072000C82F89E492E086D3C33209F01EC18091BC
:10073000780390917903892B09F42FC18091CC0221
:100740009091CD02FC0131912091CE02AFECB2E04C
:100750004496311137C02111F2C08091CA029091A4
:10076000CB0201969093CB028093CA0260E080E0B6
:1007700050D389E292E05ED361E081E04AD38EE417
:1007800092E058D31092E2021092CE0268EE73E02B
:1007900080E090E0D8D5809178039091790301971B
:1007A000909379038093780380917B00877F809377
:1007B0007B0080E480937C0080917A008064809349
:1007C0007A0009C03213BBC031912D918E179F075B
:1007D00009F0BFCFB4C080917A0086FDFCCFA09114
:1007E0007800809179002091CA023091CB02232BAE
:1007F00009F4D3C0B0E0B82B2EE630E00E940B0F16
:100800002FEF33E040E050E00E94E80CCA01B9014C
:100810006A507109810991090E94DC0D6B017C010C
:1008200020E030E046E152E40E94AA0D87FF56C066
:10083000E9D260E080E0EDD28DE592E0FBD261E0AC
:1008400080E0E7D261E085E0E4D2C701B601F3D2EF
:1008500068EE73E080E090E076D560E080E0D9D289
:1008600089E292E0E7D261E081E0D3D28EE692E0C5
:10087000E1D26AE570E08DE793E033DD6AE570E090
:100880008AE793E02EDD68E97AE380E090E05BD5CB
:1008900060E070E08DE793E024DD60E070E08AE7DF
:1008A00093E01FDD61E08DE055D460E08CE052D430
:1008B00060E080E0AED289E292E0BCD261E081E00B
:1008C000A8D28DE792E0B6D2809180039091810307
:1008D0000196909381038093800327C093D260E0B8
:1008E00080E097D28DE592E0A5D261E080E091D2E0
:1008F00061E085E08ED2C701B6019DD268EE73E05B
:1009000080E090E020D560E080E083D289E292E050
:1009100091D261E081E07DD28CE892E08BD260E1FF
:1009200077E280E090E00FD540DE8091CA0290919E
:10093000CB0201979093CB028093CA022EC060E055
:1009400080E067D289E292E075D261E081E061D215
:100950008BE992E06FD260E177E280E090E0F3D43F
:100960001092E2021092CE0212C0E091E202E33154
:10097000A1F091E09E0F9093E202F0E0E453FD4F6E
:10098000C283E92FF0E0E453FD4F128206C0CF91FD
:10099000FF90EF90DF90CF9008CECF91FF90EF9037
:1009A000DF90CF9008953FB7F894809183039091A2
:1009B0008403A0918503B091860326B5A89B05C04A
:1009C0002F3F19F00196A11DB11D3FBFBA2FA92FCE
:1009D000982F8827820F911DA11DB11DBC01CD014B
:1009E00042E0660F771F881F991F4A95D1F7089537
:1009F0001F920F920FB60F9211242F933F938F9354
:100A00009F93AF93BF938091870390918803A091A8
:100A10008903B0918A033091820323E0230F2D379D
:100A200020F40196A11DB11D05C026E8230F0296F2
:100A3000A11DB11D209382038093870390938803A7
:100A4000A0938903B0938A038091830390918403D8
:100A5000A0918503B09186030196A11DB11D8093DD
:100A6000830390938403A0938503B0938603BF917F
:100A7000AF919F918F913F912F910F900FBE0F904B
:100A80001F9018951F920F920FB60F9211240BB65C
:100A90000F922F933F934F935F936F937F938F9317
:100AA0009F93AF93BF93EF93FF9348E251E064E2CB
:100AB00071E080E090E0A1DCFF91EF91BF91AF91F8
:100AC0009F918F917F916F915F914F913F912F9166
:100AD0000F900BBE0F900FBE0F901F9018951F9296
:100AE0000F920FB60F9211240BB60F922F933F93D4
:100AF0004F935F936F937F938F939F93AF93BF9326
:100B0000EF93FF9348EA50E064EA70E083E090E0FE
:100B100074DCFF91EF91BF91AF919F918F917F9185
:100B20006F915F914F913F912F910F900BBE0F905E
:100B30000FBE0F901F9018951F920F920FB60F9235
:100B400011240BB60F922F933F934F935F936F93A4
:100B50007F938F939F93AF93BF93EF93FF9348E956
:100B600050E064E970E082E090E047DCFF91EF91B3
:100B7000BF91AF919F918F917F916F915F914F91B5
:100B80003F912F910F900BBE0F900FBE0F901F90B3
:100B900018951F920F920FB60F9211240BB60F9259
:100BA0002F933F934F935F936F937F938F939F9375
:100BB000AF93BF93EF93FF9348E850E064E870E091
:100BC00081E090E01ADCFF91EF91BF91AF919F918E
:100BD0008F917F916F915F914F913F912F910F90E6
:100BE0000BBE0F900FBE0F901F901895CF92DF9203
:100BF000EF92FF920F931F93CF93DF936C017C01D1
:100C000087E0E80EF11CC0E0D0E0062F10E0B8014C
:100C10000C2E02C0759567950A94E2F76170F70192
:100C200081917F0197D22196C430D10581F7C60109
:100C3000DF91CF911F910F91FF90EF90DF90CF90B8
:100C4000A1CCCF92DF92EF92FF920F931F93CF939D
:100C5000DF93EC01F62E642F8C817CD28D818F3F47
:100C600011F060E077D28F850F2D10E084FF23C054
:100C70006E0187E0C80ED11CE12CF12CB8010E2CBE
:100C800002C0759567950A94E2F76170F60181914B
:100C90006F0160D2FFEFEF1AFF0A88E0E816F10457
:100CA00069F7CE01DF91CF911F910F91FF90EF90E7
:100CB000DF90CF9067CCB80184E0759567958A95F1
:100CC000E1F7CE0193DF6F2DCE01DF91CF911F9120
:100CD0000F91FF90EF90DF90CF9088CF41E0B1DF90
:100CE00081E090E0089596E0899FD0011124A557F6
:100CF000BC4F90967C936E935F9791E091969C93F6
:100D000091979091F703E091F803F091F9039923FB
:100D100039F0309751F0811108C08091A70304C0C9
:100D2000309719F05C968C911994089590E0FC012D
:100D30003197E231F10508F04EC08827EE58FF4F99
:100D40008F4F0C94030F809180008F7703C08091A8
:100D500080008F7D80938000089580918000877F40
:100D6000F9CF84B58F7702C084B58F7D84BD089597
:100D70008091B0008F7703C08091B0008F7D809309
:100D8000B0000895809190008F7707C08091900007
:100D90008F7D03C080919000877F8093900008959D
:100DA0008091A0008F7707C08091A0008F7D03C045
:100DB0008091A000877F8093A000089580912001FA
:100DC0008F7707C0809120018F7D03C08091200123
:100DD000877F80932001089540E0682F8AEF93E099
:100DE00030CF009761F0FC0101900020E9F73197C6
:100DF000AF01481B590BBC018AEF93E048CA80E061
:100E000090E0089581E0E8DF8BE39FE10197F1F73F
:100E10000895643008F063E090910D04691710F0B4
:100E20006FEF690FE62FF0E0E650FC4F9489890FD1
:100E30008068D2CFD6CF2F923F924F925F926F921F
:100E40007F928F929F92AF92BF92CF92DF92EF925A
:100E5000FF920F931F93CF93DF93CDB7DEB7A49785
:100E60000FB6F894DEBF0FBECDBF6B017C019B01B6
:100E7000AC01B9D7882319F08EEB92E018C0460177
:100E80005701E894B7F82FEF3FEF4FE75FE7C50151
:100E9000B401A9D781110DC02FEF3FEF4FE75FE7F6
:100EA000C501B40157D6181624F482EC92E099DFFC
:100EB000A1C02FEF3FEF4FE75FE4C701B6012CD78A
:100EC00018161CF486EC92E0F2CF2FEF3FEF4FE7BD
:100ED0005FECC701B6013ED687FDF4CF20E030E0DD
:100EE000A901C701B60136D687FF0CC041E06DE20B
:100EF0008AEF93E0A6DEF7FAF094F7F8F09401E0B9
:100F000010E002C000E010E02AE037ED43EA5BE3C6
:100F1000C701B601BBD56B017C0120D62B013C017A
:100F200049D69B01AC01C701B601AFD54B015C01AD
:100F300019A27E0181E2E80EF11CEAA2FBA2C30124
:100F4000B2012AE030E040E050E06ED529013A01DC
:100F5000605DF70162937F01232B242B252B79F70A
:100F6000CF013FDF7C010F5F1F4F41E06EE28AEF50
:100F700093E067DE0E0D1F1D83E0F82E9AE0292E08
:100F8000312C412C512CFA94FF2099F120E030E0D3
:100F900040E251E4C501B401C3D64B015C01DED58A
:100FA0009B0140E050E019A26AA07BA06CA3C32E75
:100FB000D42EE52ECA01B901A201910135D5605D9B
:100FC000F30162933F01211531054105510591F768
:100FD000CF0107DF080F191F6CA17C2D8D2D9E2DD1
:100FE000E9D59B01AC01C501B4014FD54B015C01B2
:100FF000CACFC801A4960FB6F894DEBF0FBECDBF0E
:10100000DF91CF911F910F91FF90EF90DF90CF90E4
:10101000BF90AF909F908F907F906F905F904F9018
:101020003F902F900895CF92DF92EF92FF920F930F
:101030001F9396E0899FF0011124E557FC4F11A200
:10104000278D30A12130310531F158F022303105A2
:1010500009F446C02330310509F04DC060E070E06E
:1010600043C0662309F447C061E070E03CDE2FB75F
:10107000F8948091870390918803A0918903B0919F
:101080008A032FBF8093E3039093E403A093E503C7
:10109000B093E60330C09FB7F894C0908703D09018
:1010A0008803E0908903F0908A039FBF0091E303D7
:1010B0001091E4032091E5033091E603C01AD10AB0
:1010C000E20AF30A0091F5031091F60320E030E004
:1010D0000C151D052E053F0518F462E070E004C0F4
:1010E000611109C063E070E01F910F91FF90EF90D4
:1010F000DF90CF90F8CD1F910F91FF90EF90DF9090
:10110000CF900895CF93DF93282F30E0F901EE516F
:10111000FE4F8491F901E456FE4FD491F901EA5A49
:10112000FE4FC491CC2389F0811100DEEC2FF0E05A
:10113000EE0FFF1FE45CFE4FA591B491EC91ED23FF
:1011400081E090E021F480E002C080E090E0DF9157
:10115000CF9108951F93CF93DF93282F30E0F901AB
:10116000EE51FE4F8491F901E456FE4FD491F901FE
:10117000EA5AFE4FC491CC23B9F0162F8111D6DD67
:10118000EC2FF0E0EE0FFF1FEE5DFE4FA591B49146
:101190009FB7F894111104C08C91D095D82302C048
:1011A000EC91DE2BDC939FBFDF91CF911F910895CF
:1011B000CF93DF9390E0FC01E456FE4F2491FC01B5
:1011C000EA5AFE4F8491882361F190E0880F991FBD
:1011D000FC01E85FFE4FC591D491FC01EE5DFE4F2E
:1011E000A591B491611109C09FB7F89488812095A9
:1011F00082238883EC912E230BC0623061F49FB769
:10120000F8948881322F309583238883EC912E2B9C
:101210002C939FBF06C08FB7F894E8812E2B2883AC
:101220008FBFDF91CF910895CF93DF93823028F065
:101230009091090498609093090480930D04109292
:101240000E0480E480930F0480E18093100480E515
:101250008093110461E08091FE03AADF8091FF0377
:101260008F3F11F061E0A4DF61E080910004A0DF16
:10127000CAEFD3E09E012A5F33408091090484FDC8
:1012800003C084E090E002C088E090E02196281737
:10129000390724F461E08E818BDFECCF8BE39DE096
:1012A0000197F1F760E08091FE0354DF60E08091E8
:1012B000000450DF8091FF038F3F11F060E04ADFB0
:1012C0008091090484FD1CC063E08AEF93E08EDC0A
:1012D000CBE4D6E4CE010197F1F763E08AEF93E027
:1012E00085DC2197F1F763E08AEF93E07FDC83E50B
:1012F00092E00197F1F762E08AEF93E077DC12C0A9
:1013000080626ADD8BE496E40197F1F7809109042D
:10131000806262DD83E592E00197F1F78091090434
:1013200080625ADD80910904806256DD84E08093FA
:101330000A048CE051DD66DD82E080930B0486E0D8
:10134000DF91CF9149CD8F929F92AF92BF92CF9272
:10135000DF92EF92FF926B017C0125DB4B015C0178
:10136000C114D104E104F104E9F01DDBDC01CB017F
:1013700088199909AA09BB09883E9340A105B105BE
:1013800078F321E0C21AD108E108F10888EE880E4E
:1013900083E0981EA11CB11CC114D104E104F10426
:1013A00021F7DECFFF90EF90DF90CF90BF90AF900E
:1013B0009F908F900895789484B5826084BD84B5A1
:1013C000816084BD85B5826085BD85B5816085BD40
:1013D00080916E00816080936E00109281008091F8
:1013E0008100826080938100809181008160809380
:1013F0008100809180008160809380008091B100A5
:1014000084608093B1008091B00081608093B000CF
:101410008091910082608093910080919100816021
:1014200080939100809190008160809390008091E2
:10143000A10082608093A1008091A10081608093CF
:10144000A1008091A00081608093A0008091210183
:10145000826080932101809121018160809321012C
:101460008091200181608093200180917A008460C6
:1014700080937A0080917A00826080937A008091D4
:101480007A00816080937A0080917A0080688093EE
:101490007A001092C10082E0C7DE63E070E08DE761
:1014A00093E0A1D862E070E08AE793E09CD860E026
:1014B00070E08DE793E00E94710160E070E08AE7E0
:1014C00093E00E9471018CE793E09093F90380937D
:1014D000F80382E390E09093F4038093F303CAE06F
:1014E000D0E0CC30D10514F460E001C061E08C2F75
:1014F0005FDE2196CF30D105A1F760E08DE02ADED6
:1015000061E08CE027DE60E080E083DC89E292E04D
:1015100091DC61E081E07DDC8AE392E08BDC45D800
:10152000812C912C5401839444244A94542C50E0EF
:10153000652E50E0752E51E05093F7038FB7F89465
:1015400040918703509188036091890370918A03C9
:101550008FBF8091E7039091E803A091E903B091D8
:10156000EA03481B590B6A0B7B0B8091F3039091A4
:10157000F403A0E0B0E084179507A607B70700F5CD
:10158000C0E02BC080E099A1911181E0269693E004
:10159000C73CD907C1F79FB7F89440918703509192
:1015A00088036091890370918A039FBF4093E7038A
:1015B0005093E8036093E9037093EA038111B2C08A
:1015C0001092F703BBC0E091ED03F091EE03EC0F36
:1015D000F11D62E08081ECDDCF5F8091F103C817DF
:1015E00090F3312C31C0C22DD0E0E091ED03F091A9
:1015F000EE03EC0FFD1F808185DD2496CC0FDD1FEF
:10160000C557DC4F892B09F047C0888199818C2907
:101610009D299983888323948091F103281618F3D8
:10162000E091EF03F091F003E00FF11F61E08081A2
:1016300091DD8091EF039091F003FC01E00FF11F29
:1016400060E08081B5DD33948091F203381648F56F
:10165000032D10E0E091EF03F091F003E00FF11F94
:1016600061E08081A5DDE091EF03F091F003E00FF0
:10167000F11F60E080816EDDD501C401032C04C040
:10168000880F991FAA1FBB1F0A94D2F76C017C0117
:10169000E094F094212CC0CF888199818E219F21E4
:1016A000B8CFCBE8D3E0FE01878D90A1892B21F440
:1016B000148E568E458E11A2369683E0E73CF807CD
:1016C00099F7F12C8091F103F81608F05BCFE12C2B
:1016D0000F2D10E0000F111F0D561C4F2091F2032B
:1016E000E216F0F4F801408151810E2C02C05695AB
:1016F00047950A94E2F7642F6170F29E90011124DD
:101700002E0D311DEBE8F3E080E0A58DB68D2A1794
:101710003B0709F49CC08F5F36968A30B1F77AC0D8
:10172000F394D0CF8091AC03882309F449CF809102
:10173000AA039091AB03019709F042CF8BE0E2DC62
:101740000197D9F48091800390918103892BA9F4AA
:101750008091780390917903019690937903809317
:10176000780361E081E055DB8AEA92E063DB68EEB2
:1017700073E080E090E0E7DD45DBC0918003D0912D
:101780008103209709F43FC08AE0BCDC019709F08F
:101790003AC060ED77E080E090E0D5DD61E08EE07A
:1017A000D9DC60E27EE480E090E0CDDD60E08EE0B8
:1017B000D1DC6AE570E08DE793E00E9471016AE593
:1017C00070E08AE793E00E94710168E97AE380E0C3
:1017D00090E0B9DD60E070E08DE793E00E94710178
:1017E00060E070E08AE793E00E94710160E08DE0C4
:1017F000B1DC61E08CE0AEDC2197D0938103C09333
:1018000080030E94D5026114710409F494CE0E94F1
:10181000000091CE40FF1CC0EBE8F3E080E090E0D8
:10182000448D411117C0E091EB03F091EC03E20FFE
:10183000F31F408156E0589FF001599FF00D11248D
:10184000E557FC4F448F368F258F10A2178EEBDBA8
:10185000E39444CF019636968A30910509F7F8CF84
:10186000CF931092FD031092FC0381E292E09093DB
:10187000FB038093FA0389E08093FE03CFEFC093CC
:10188000FF0388E08093000487E08093010486E0F2
:101890008093020485E08093030484E08093040431
:1018A0001092050410920604109207041092080486
:1018B0001092090481E0B8DC8091E3028033A0F447
:1018C00091E0980F9093E30280937D0390E0FC01F8
:1018D000EE0FFF1F8E0F9F1FFC01E851FD4F88EB9D
:1018E0009BE09283818302C0C0937D038091E302D9
:1018F0008033A0F491E0980F9093E30280937A03F1
:1019000090E0FC01EE0FFF1F8E0F9F1FFC01E851BE
:10191000FD4F88EB9BE09283818303C08FEF809320
:101920007A0310928D0310929103109290031092FB
:10193000920387E192E090938C0380938B03EBE812
:10194000F3E0148E10A2178E11A2369683E0E73CC6
:10195000F807B9F783E092E09093EE038093ED03EC
:1019600080E092E09093F0038093EF0384E0809313
:10197000F10383E08093F20387E092E09093EC031D
:101980008093EB038AE090E09093F4038093F30359
:1019900084EF91E09093F6038093F5031092F9039E
:1019A0001092F8031092E7031092E8031092E903F3
:1019B0001092EA031092F70389EB92E09093CD0224
:1019C0008093CC021092E2021092CE02CF91089541
:1019D000052E97FB16F400940FD057FD05D024D0A8
:1019E00007FC02D046F408C05095409530952195EB
:1019F0003F4F4F4F5F4F089590958095709561953B
:101A00007F4F8F4F9F4F089531D0A59F900DB49F6A
:101A1000900DA49F800D911D11240895B7FFF4CF60
:101A2000F3DF821B930B0895A1E21A2EAA1BBB1BA6
:101A3000FD010DC0AA1FBB1FEE1FFF1FA217B3079A
:101A4000E407F50720F0A21BB30BE40BF50B661FB0
:101A5000771F881F991F1A9469F760957095809574
:101A600090959B01AC01BD01CF010895A29FB001EB
:101A7000B39FC001A39F700D811D1124911DB29FC2
:101A8000700D811D1124911D08955058BB27AA2760
:101A90000ED008C1F9D030F0FED020F031F49F3FD5
:101AA00011F41EF4EEC00EF4E095E7FBE4C0E92F5C
:101AB0000AD180F3BA17620773078407950718F0F5
:101AC00071F49EF522C10EF4E0950B2EBA2FA02DD5
:101AD0000B01B90190010C01CA01A0011124FF27DB
:101AE000591B99F0593F50F4503E68F11A16F040D6
:101AF000A22F232F342F4427585FF3CF46953795D5
:101B00002795A795F0405395C9F77EF41F16BA0B99
:101B1000620B730B840BBAF09150A1F0FF0FBB1F47
:101B2000661F771F881FC2F70EC0BA0F621F731F90
:101B3000841F48F4879577956795B795F7959E3FED
:101B400008F0B3CF9395880F08F09927EE0F97957B
:101B5000879508956CD008F481E00895BCD088F092
:101B60009F5790F0B92F9927B751A0F0D1F0660F89
:101B7000771F881F991F1AF0BA95C9F712C0B130A4
:101B800081F0C3D0B1E00895C0C0672F782F8827B7
:101B9000B85F39F0B93FCCF3869577956795B395E3
:101BA000D9F73EF490958095709561957F4F8F4F52
:101BB0009F4F0895E89409C097FB3EF49095809557
:101BC000709561957F4F8F4F9F4F9923A9F0F92F03
:101BD00096E9BB279395F695879577956795B79581
:101BE000F111F8CFFAF4BB0F11F460FF1BC06F5F67
:101BF0007F4F8F4F9F4F16C0882311F096E911C079
:101C0000772321F09EE8872F762F05C0662371F099
:101C100096E8862F70E060E02AF09A95660F771FAD
:101C2000881FDAF7880F9695879597F90895990F89
:101C30000008550FAA0BE0E8FEEF16161706E80796
:101C4000F907C0F012161306E407F50798F0621BB7
:101C5000730B840B950B39F40A2661F0232B242B8C
:101C6000252B21F408950A2609F4A140A6958FEFAB
:101C7000811D811D089597F99F6780E870E060E0FD
:101C800008959FEF80EC089500240A941616170615
:101C900018060906089500240A941216130614065D
:101CA00005060895092E0394000C11F4882352F0C0
:101CB000BB0F40F4BF2B11F460FF04C06F5F7F4F78
:101CC0008F4F9F4F089557FD9058440F551F59F05F
:101CD0005F3F71F04795880F97FB991F61F09F3F19
:101CE00079F087950895121613061406551FF2CF42
:101CF0004695F1DF08C0161617061806991FF1CF92
:101D000086957105610508940895E894BB276627B8
:101D10007727CB0197F908958ADF08F48FEF0895AC
:101D20000BD0C0CFB1DF28F0B6DF18F0952309F053
:101D3000A2CFA7CF1124EACFC6DFA0F3959FD1F39E
:101D4000950F50E0551F629FF001729FBB27F00D69
:101D5000B11D639FAA27F00DB11DAA1F649F6627BE
:101D6000B00DA11D661F829F2227B00DA11D621F0D
:101D7000739FB00DA11D621F839FA00D611D221FC7
:101D8000749F3327A00D611D231F849F600D211DAB
:101D9000822F762F6A2F11249F5750408AF0E1F04E
:101DA00088234AF0EE0FFF1FBB1F661F771F881F97
:101DB00091505040A9F79E3F510570F05CCFA6CFDF
:101DC0005F3FECF3983EDCF3869577956795B79582
:101DD000F795E7959F5FC1F7FE2B880F911D9695AC
:101DE000879597F9089523DF880B990B0895991B20
:101DF00079E004C0991F961708F0961B881F7A9502
:101E0000C9F780950895EE0FFF1F881F8BBF0790BD
:101E1000F691E02D19942ADEB7FF0895821B930BEB
:0E1E2000089581E090E0F89400C0F894FFCFA0
:101E2E0011100F1213141531323334353637383949
:101E3E002A302300000000F002FA01F80100000031
:101E4E00006E064701F501F401484F504954414CCC
:101E5E002020534F5549535349004C494D49544541
:101E6E00442041434345535300202A202000202084
:101E7E00434845434B2054454D5020200020202000
:101E8E002054454D50202843292020202000204456
:101E9E004F4F52204F50454E494E47200020204272
:101EAE00555359202041524541202000414343457E
:101EBE005353202044454E49454400202057524F4D
:101ECE004E47202050494E202000454E544552206A
:101EDE00594F55522050494E0031393230006E6103
:0A1EEE006E00696E66006F766600F4
:00000001FF
