:1000000014C1000043C1000041C100003FC1000015
:100010003DC100003BC1000039C1000037C10000F4
:1000200035C1000033C1000031C100002FC1000004
:100030002DC100002BC1000029C1000027C1000014
:1000400025C10000A6C5000021C100001FC100009D
:100050001DC100001BC1000019C10000C9C400007F
:1000600015C1000013C1000011C100000FC1000044
:100070000DC100000BC1000009C1000007C1000054
:100080005BC5000003C1000001C10000FFC000000B
:10009000FDC00000FBC00000F9C00000F7C0000078
:1000A000F5C00000F3C000001AC50000EFC000005A
:1000B000EDC00000EBC00000E9C00000E3C4000098
:1000C000E5C00000E3C00000E1C00000DFC00000A8
:1000D000DDC00000DBC00000D9C00000D7C00000B8
:1000E000D5C00000B106B406A306A706AD06EB0610
:1000F000B806BC06C206C606CA06D006D406D8068E
:10010000EB06DE06E206E6060000210024002700DA
:100110002A002D0030003300010100000401070116
:100120000A0100002200250028002B002E003100CB
:10013000340002010000050108010B01000020004D
:100140002300260029002C002F00320000010000AF
:10015000030106010901050505050705080808084A
:10016000020202020A0A080804040404010101014F
:10017000010101010303030303030303040707074A
:100180000C0C0C0C0C0C0C0C0202020206060606EF
:10019000060606060B0B0B0B0B0B0B0B01021020BC
:1001A00020080810204010204080020102010804AD
:1001B0000201010204081020408080402010080441
:1001C000020180040201804020100804020108049A
:1001D00002010102040810204080010204081020DE
:1001E000408000000A0B02090C0D0E0807030401F1
:1001F00000000000000000000000000000000000FF
:1002000000000000000000000000000000001211CB
:1002100010000000000000000000000000000000CE
:100220000000000000000000300C11241FBECFEFC2
:10023000D1E2DEBFCDBF00E00CBF12E0A0E0B2E033
:10024000EEE2FEE100E00BBF02C007900D92AA3C77
:10025000B107D9F724E0AAECB2E001C01D92A231A7
:10026000B207E1F711E0C5E1D1E000E006C0219757
:100270000109802FFE010E94030FC431D10780E0E5
:100280000807A9F70E94DB090C94150FB9CECF928D
:10029000DF92EF92FF920F931F93CF93DF936C0146
:1002A0007A018B01C0E0D0E0CE15DF0581F0D801E6
:1002B0006D918D01D601ED91FC910190F081E02DC1
:1002C000C6011995892B11F02196EECF7E01C70149
:1002D000DF91CF911F910F91FF90EF90DF90CF9022
:1002E0000895CF92DF92EF92FF92CF93DF93EC01CC
:1002F000603282E078070CF03DC077FD06C0653BB8
:1003000071052CF064EB70E002C060E070E0898160
:1003100028E830E06901C81AD10887FDD394CC0CD5
:10032000DD1CCC0CDD1C0D2C000CEE08FF088A81B6
:1003300028E532E0281B310987FD3395220F331F52
:10034000220F331FC901330FAA0BBB0B9C01AD0158
:100350002C193D094E095F09DB010E940E0D24EBAB
:1003600030E040E050E00E94E80CC20ED31EE41ED4
:10037000F51EB6013881303380F5298188E890E098
:10038000821B910927FD9395880F991F880F991F4C
:100390006817790784F08A8148E552E0481B5109C3
:1003A00087FD5395440F551F440F551FCB0146172A
:1003B00057070CF4CA010297880F991F4FB7F8949A
:1003C000232F30E0F901EE0FFF1F2E0F3F1FF90121
:1003D000E851FD4F928381834FBFDF91CF91FF9012
:1003E000EF90DF90CF900895089580E090E0089519
:1003F000862F88C6862F642FADC6CF92DF92EF92EC
:10040000FF920F931F93CF93DF936C018B017A01BF
:10041000EC01CC51DD4F888187FF04C0FB011182C4
:10042000108224C02CE02C9DC0012D9D900D112424
:100430002881AC01420F511D27FD5A952091E302FE
:1004400030E04217530794F42881AC01420F511D4C
:1004500027FD5A959A01FA01EE0FFF1F2E0F3F1F3D
:10046000F901E851FD4F208126FD19C088818F5F79
:1004700088832CE02C9DC0012D9D900D1124288196
:10048000AC01420F511D27FD5A952091E30230E047
:1004900042175307B4F428812C303CF112C0288154
:1004A000820F911D27FD9A95FC01EE0FFF1F8E0F05
:1004B0009F1FFC01E851FD4F808160E08F734AD699
:1004C000D5CFF80180819181049680349C4918F43D
:1004D00080E49CE904C0F801808191810496F701D1
:1004E000918380838FEF888344C0F80140815181DC
:1004F0002881BC01620F711D27FD7A959B01FB01CC
:10050000EE0FFF1F2E0F3F1FF901E851FD4F218114
:100510003281240F351FF701318320832881AC01FC
:10052000420F511D27FD5A959A01FA01EE0FFF1F48
:100530002E0F3F1FF901E851FD4F208126FF19C002
:100540002881820F911D27FD9A95FC01EE0FFF1F58
:100550008E0F9F1FFC01E851FD4F808161E08F737A
:10056000DF91CF911F910F91FF90EF90DF90CF908F
:10057000F1C5DF91CF911F910F91FF90EF90DF9028
:10058000CF900895CF93DF93EC0160E08E81E2D5A8
:1005900061E08E81DFD560E08E81DCD58BE891E073
:1005A0000197F1F7DF91CF910895809180039091A9
:1005B0008103892BA1F41092790310927803109291
:1005C000CB021092CA0260E080E023D489E292E07C
:1005D00031D461E081E01DD48AE392E02BC4089518
:1005E000862F642FE5C51F93CF93DF93EC01162F61
:1005F0008881803308F04DC061E0812FD9D5888192
:10060000E82FF0E09F01220F331FE20FF31FE851A4
:10061000FD4F1F739081907C192B108319821A82D1
:100620006CE00E94F70E9CE0899FB001112440E02D
:1006300050E09B01240F351FF901EE0FFF1F2E0F15
:100640003F1FF901E851FD4F908196FD16C04F5FA5
:100650005F4F4C30510569F7813001F510928000F1
:1006600082E0809381001092850010928400B19AFC
:1006700080916F00826080936F00E881F0E0CF018D
:10068000880F991FE80FF91FE851FD4F80818064A2
:1006900080838881DF91CF911F910895823061F42A
:1006A0001092900080939100109295001092940007
:1006B00088BB80937100E1CF833069F41092A00071
:1006C00082E08093A1001092A5001092A40089BB43
:1006D00080937200D2CF8111D0CF1092200182E09E
:1006E0008093210110922501109224018ABB8093EE
:1006F0007300C3CF0E94110FCF92DF92EF92FF924F
:10070000CF932091780330917903232B09F43FC1D3
:100710002091AA033091AB032130310509F03DC18E
:10072000C82F89E492E086D3C33209F01EC18091BC
:10073000780390917903892B09F42FC18091CC0221
:100740009091CD02FC0131912091CE02AFECB2E04C
:100750004496311137C02111F2C08091CA029091A4
:10076000CB0201969093CB028093CA0260E080E0B6
:1007700050D389E292E05ED361E081E04AD38EE417
:1007800092E058D31092E2021092CE0268EE73E02B
:1007900080E090E0D8D5809178039091790301971B
:1007A000909379038093780380917B00877F809377
:1007B0007B0080E480937C0080917A008064809349
:1007C0007A0009C03213BBC031912D918E179F075B
:1007D00009F0BFCFB4C080917A0086FDFCCFA09114
:1007E0007800809179002091CA023091CB02232BAE
:1007F00009F4D3C0B0E0B82B2EE630E00E940B0F16
:100800002FEF33E040E050E00E94E80CCA01B9014C
:100810006A507109810991090E94DC0D6B017C010C
:1008200020E030E046E152E40E94AA0D87FF56C066
:10083000E9D260E080E0EDD28DE592E0FBD261E0AC
:1008400080E0E7D261E085E0E4D2C701B601F3D2EF
:1008500068EE73E080E090E076D560E080E0D9D289
:1008600089E292E0E7D261E081E0D3D28EE692E0C5
:10087000E1D26AE570E08DE793E033DD6AE570E090
:100880008AE793E02EDD68E97AE380E090E05BD5CB
:1008900060E070E08DE793E024DD60E070E08AE7DF
:1008A00093E01FDD61E08DE055D460E08CE052D430
:1008B00060E080E0AED289E292E0BCD261E081E00B
:1008C000A8D28DE792E0B6D2809180039091810307
:1008D0000196909381038093800327C093D260E0B8
:1008E00080E097D28DE592E0A5D261E080E091D2E0
:1008F00061E085E08ED2C701B6019DD268EE73E05B
:1009000080E090E020D560E080E083D289E292E050
:1009100091D261E081E07DD28CE892E08BD260E1FF
:1009200077E280E090E00FD540DE8091CA0290919E
:10093000CB0201979093CB028093CA022EC060E055
:1009400080E067D289E292E075D261E081E061D215
:100950008BE992E06FD260E177E280E090E0F3D43F
:100960001092E2021092CE0212C0E091E202E33154
:10097000A1F091E09E0F9093E202F0E0E453FD4F6E
:10098000C283E92FF0E0E453FD4F128206C0CF91FD
:10099000FF90EF90DF90CF9008CECF91FF90EF9037
:1009A000DF90CF9008953FB7F894809183039091A2
:1009B0008403A0918503B091860326B5A89B05C04A
:1009C0002F3F19F00196A11DB11D3FBFBA2FA92FCE
:1009D000982F8827820F911DA11DB11DBC01CD014B
:1009E00042E0660F771F881F991F4A95D1F7089537
:1009F0001F920F920FB60F9211242F933F938F9354
:100A00009F93AF93BF938091870390918803A091A8
:100A10008903B0918A033091820323E0230F2D379D
:100A200020F40196A11DB11D05C026E8230F0296F2
:100A3000A11DB11D209382038093870390938803A7
:100A4000A0938903B0938A038091830390918403D8
:100A5000A0918503B09186030196A11DB11D8093DD
:100A6000830390938403A0938503B0938603BF917F
:100A7000AF919F918F913F912F910F900FBE0F904B
:100A80001F9018951F920F920FB60F9211240BB65C
:100A90000F922F933F934F935F936F937F938F9317
:100AA0009F93AF93BF93EF93FF9348E251E064E2CB
:100AB00071E080E090E0A1DCFF91EF91BF91AF91F8
:100AC0009F918F917F916F915F914F913F912F9166
:100AD0000F900BBE0F900FBE0F901F9018951F9296
:100AE0000F920FB60F9211240BB60F922F933F93D4
:100AF0004F935F936F937F938F939F93AF93BF9326
:100B0000EF93FF9348EA50E064EA70E083E090E0FE
:100B100074DCFF91EF91BF91AF919F918F917F9185
:100B20006F915F914F913F912F910F900BBE0F905E
:100B30000FBE0F901F9018951F920F920FB60F9235
:100B400011240BB60F922F933F934F935F936F93A4
:100B50007F938F939F93AF93BF93EF93FF9348E956
:100B600050E064E970E082E090E047DCFF91EF91B3
:100B7000BF91AF919F918F917F916F915F914F91B5
:100B80003F912F910F900BBE0F900FBE0F901F90B3
:100B900018951F920F920FB60F9211240BB60F9259
:100BA0002F933F934F935F936F937F938F939F9375
:100BB000AF93BF93EF93FF9348E850E064E870E091
:100BC00081E090E01ADCFF91EF91BF91AF919F918E
:100BD0008F917F916F915F914F913F912F910F90E6
:100BE0000BBE0F900FBE0F901F901895CF92DF9203
:100BF000EF92FF920F931F93CF93DF936C017C01D1
:100C000087E0E80EF11CC0E0D0E0062F10E0B8014C
:100C10000C2E02C0759567950A94E2F76170F70192
:100C200081917F0197D22196C430D10581F7C60109
:100C3000DF91CF911F910F91FF90EF90DF90CF90B8
:100C4000A1CCCF92DF92EF92FF920F931F93CF939D
:100C5000DF93EC01F62E642F8C817CD28D818F3F47
:100C600011F060E077D28F850F2D10E084FF23C054
:100C70006E0187E0C80ED11CE12CF12CB8010E2CBE
:100C800002C0759567950A94E2F76170F60181914B
:100C90006F0160D2FFEFEF1AFF0A88E0E816F10457
:100CA00069F7CE01DF91CF911F910F91FF90EF90E7
:100CB000DF90CF9067CCB80184E0759567958A95F1
:100CC000E1F7CE0193DF6F2DCE01DF91CF911F9120
:100CD0000F91FF90EF90DF90CF9088CF41E0B1DF90
:100CE00081E090E0089596E0899FD0011124A557F6
:100CF000BC4F90967C936E935F9791E091969C93F6
:100D000091979091F703E091F803F091F9039923FB
:100D100039F0309751F0811108C08091A70304C0C9
:100D2000309719F05C968C911994089590E0FC012D
:100D30003197E231F10508F04EC08827EE58FF4F99
:100D40008F4F0C94030F809180008F7703C08091A8
:100D500080008F7D80938000089580918000877F40
:100D6000F9CF84B58F7702C084B58F7D84BD089597
:100D70008091B0008F7703C08091B0008F7D809309
:100D8000B0000895809190008F7707C08091900007
:100D90008F7D03C080919000877F8093900008959D
:100DA0008091A0008F7707C08091A0008F7D03C045
:100DB0008091A000877F8093A000089580912001FA
:100DC0008F7707C0809120018F7D03C08091200123
:100DD000877F80932001089540E0682F8AEF93E099
:100DE00030CF009761F0FC0101900020E9F73197C6
:100DF000AF01481B590BBC018AEF93E048CA80E061
:100E000090E0089581E0E8DF8BE39FE10197F1F73F
:100E10000895643008F063E090910D04691710F0B4
:100E20006FEF690FE62FF0E0E650FC4F9489890FD1
:100E30008068D2CFD6CF2F923F924F925F926F921F
:100E40007F928F929F92AF92BF92CF92DF92EF925A
:100E5000FF920F931F93CF93DF93CDB7DEB7A49785
:100E60000FB6F894DEBF0FBECDBF6B017C019B01B6
:100E7000AC01B9D7882319F08EEB92E018C0460177
:100E80005701E894B7F82FEF3FEF4FE75FE7C50151
:100E9000B401A9D781110DC02FEF3FEF4FE75FE7F6
:100EA000C501B40157D6181624F482EC92E099DFFC
:100EB000A1C02FEF3FEF4FE75FE4C701B6012CD78A
:100EC00018161CF486EC92E0F2CF2FEF3FEF4FE7BD
:100ED0005FECC701B6013ED687FDF4CF20E030E0DD
:100EE000A901C701B60136D687FF0CC041E06DE20B
:100EF0008AEF93E0A6DEF7FAF094F7F8F09401E0B9
:100F000010E002C000E010E02AE037ED43EA5BE3C6
:100F1000C701B601BBD56B017C0120D62B013C017A
:100F200049D69B01AC01C701B601AFD54B015C01AD
:100F300019A27E0181E2E80EF11CEAA2FBA2C30124
:100F4000B2012AE030E040E050E06ED529013A01DC
:100F5000605DF70162937F01232B242B252B79F70A
:100F6000CF013FDF7C010F5F1F4F41E06EE28AEF50
:100F700093E067DE0E0D1F1D83E0F82E9AE0292E08
:100F8000312C412C512CFA94FF2099F120E030E0D3
:100F900040E251E4C501B401C3D64B015C01DED58A
:100FA0009B0140E050E019A26AA07BA06CA3C32E75
:100FB000D42EE52ECA01B901A201910135D5605D9B
:100FC000F30162933F01211531054105510591F768
:100FD000CF0107DF080F191F6CA17C2D8D2D9E2DD1
:100FE000E9D59B01AC01C501B4014FD54B015C01B2
:100FF000CACFC801A4960FB6F894DEBF0FBECDBF0E
:10100000DF91CF911F910F91FF90EF90DF90CF90E4
:10101000BF90AF909F908F907F906F905F904F9018
:101020003F902F900895CF92DF92EF92FF920F930F
:101030001F9396E0899FF0011124E557FC4F11A200
:10104000278D30A12130310531F158F022303105A2
:1010500009F446C02330310509F04DC060E070E06E
:1010600043C0662309F447C061E070E03CDE2FB75F
:10107000F8948091870390918803A0918903B0919F
:101080008A032FBF8093E3039093E403A093E503C7
:10109000B093E60330C09FB7F894C0908703D09018
:1010A0008803E0908903F0908A039FBF0091E303D7
:1010B0001091E4032091E5033091E603C01AD10AB0
:1010C000E20AF30A0091F5031091F60320E030E004
:1010D0000C151D052E053F0518F462E070E004C0F4
:1010E000611109C063E070E01F910F91FF90EF90D4
:1010F000DF90CF90F8CD1F910F91FF90EF90DF9090
:10110000CF900895CF93DF93282F30E0F901EE516F
:10111000FE4F8491F901E456FE4FD491F901EA5A49
:10112000FE4FC491CC2389F0811100DEEC2FF0E05A
:10113000EE0FFF1FE45CFE4FA591B491EC91ED23FF
:1011400081E090E021F480E002C080E090E0DF9157
:10115000CF9108951F93CF93DF93282F30E0F901AB
:10116000EE51FE4F8491F901E456FE4FD491F901FE
:10117000EA5AFE4FC491CC23B9F0162F8111D6DD67
:10118000EC2FF0E0EE0FFF1FEE5DFE4FA591B49146
:101190009FB7F894111104C08C91D095D82302C048
:1011A000EC91DE2BDC939FBFDF91CF911F910895CF
:1011B000CF93DF9390E0FC01E456FE4F2491FC01B5
:1011C000EA5AFE4F8491882361F190E0880F991FBD
:1011D000FC01E85FFE4FC591D491FC01EE5DFE4F2E
:1011E000A591B491611109C09FB7F89488812095A9
:1011F00082238883EC912E230BC0623061F49FB769
:10120000F8948881322F309583238883EC912E2B9C
:101210002C939FBF06C08FB7F894E8812E2B2883AC
:101220008FBFDF91CF910895CF93DF93823028F065
:101230009091090498609093090480930D04109292
:101240000E0480E480930F0480E18093100480E515
:101250008093110461E08091FE03AADF8091FF0377
:101260008F3F11F061E0A4DF61E080910004A0DF16
:10127000CAEFD3E09E012A5F33408091090484FDC8
:1012800003C084E090E002C088E090E02196281737
:10129000390724F461E08E818BDFECCF8BE39DE096
:1012A0000197F1F760E08091FE0354DF60E08091E8
:1012B000000450DF8091FF038F3F11F060E04ADFB0
:1012C0008091090484FD1CC063E08AEF93E08EDC0A
:1012D000CBE4D6E4CE010197F1F763E08AEF93E027
:1012E00085DC2197F1F763E08AEF93E07FDC83E50B
:1012F00092E00197F1F762E08AEF93E077DC12C0A9
:1013000080626ADD8BE496E40197F1F7809109042D
:10131000806262DD83E592E00197F1F78091090434
:1013200080625ADD80910904806256DD84E08093FA
:101330000A048CE051DD66DD82E080930B0486E0D8
:10134000DF91CF9149CD8F929F92AF92BF92CF9272
:10135000DF92EF92FF926B017C0125DB4B015C0178
:10136000C114D104E104F104E9F01DDBDC01CB017F
:1013700088199909AA09BB09883E9340A105B105BE
:1013800078F321E0C21AD108E108F10888EE880E4E
:1013900083E0981EA11CB11CC114D104E104F10426
:1013A00021F7DECFFF90EF90DF90CF90BF90AF900E
:1013B0009F908F900895789484B5826084BD84B5A1
:1013C000816084BD85B5826085BD85B5816085BD40
:1013D00080916E00816080936E00109281008091F8
:1013E0008100826080938100809181008160809380
:1013F0008100809180008160809380008091B100A5
:1014000084608093B1008091B00081608093B000CF
:101410008091910082608093910080919100816021
:1014200080939100809190008160809390008091E2
:10143000A10082608093A1008091A10081608093CF
:10144000A1008091A00081608093A0008091210183
:10145000826080932101809121018160809321012C
:101460008091200181608093200180917A008460C6
:1014700080937A0080917A00826080937A008091D4
:101480007A00816080937A0080917A0080688093EE
:101490007A001092C10082E0C7DE63E070E08DE761
:1014A00093E0A1D862E070E08AE793E09CD860E026
:1014B00070E08DE793E00E94710160E070E08AE7E0
:1014C00093E00E9471018CE793E09093F90380937D
:1014D000F80382E390E09093F4038093F303CAE06F
:1014E000D0E0CC30D10514F460E001C061E08C2F75
:1014F0005FDE2196CF30D105A1F760E08DE02ADED6
:1015000061E08CE027DE60E080E083DC89E292E04D
:1015100091DC61E081E07DDC8AE392E08BDC45D800
:10152000812C912C5401839444244A94542C50E0EF
:10153000652E50E0752E51E05093F7038FB7F89465
:1015400040918703509188036091890370918A03C9
:101550008FBF8091E7039091E803A091E903B091D8
:10156000EA03481B590B6A0B7B0B8091F3039091A4
:10157000F403A0E0B0E084179507A607B70700F5CD
:10158000C0E02BC080E099A1911181E0269693E004
:10159000C73CD907C1F79FB7F89440918703509192
:1015A00088036091890370918A039FBF4093E7038A
:1015B0005093E8036093E9037093EA038111B2C08A
:1015C0001092F703BBC0E091ED03F091EE03EC0F36
:1015D000F11D62E08081ECDDCF5F8091F103C817DF
:1015E00090F3312C31C0C22DD0E0E091ED03F091A9
:1015F000EE03EC0FFD1F808185DD2496CC0FDD1FEF
:10160000C557DC4F892B09F047C0888199818C2907
:101610009D299983888323948091F103281618F3D8
:10162000E091EF03F091F003E00FF11F61E08081A2
:1016300091DD8091EF039091F003FC01E00FF11F29
:1016400060E08081B5DD33948091F203381648F56F
:10165000032D10E0E091EF03F091F003E00FF11F94
:1016600061E08081A5DDE091EF03F091F003E00FF0
:10167000F11F60E080816EDDD501C401032C04C040
:10168000880F991FAA1FBB1F0A94D2F76C017C0117
:10169000E094F094212CC0CF888199818E219F21E4
:1016A000B8CFCBE8D3E0FE01878D90A1892B21F440
:1016B000148E568E458E11A2369683E0E73CF807CD
:1016C00099F7F12C8091F103F81608F05BCFE12C2B
:1016D0000F2D10E0000F111F0D561C4F2091F2032B
:1016E000E216F0F4F801408151810E2C02C05695AB
:1016F00047950A94E2F7642F6170F29E90011124DD
:101700002E0D311DEBE8F3E080E0A58DB68D2A1794
:101710003B0709F49CC08F5F36968A30B1F77AC0D8
:10172000F394D0CF8091AC03882309F449CF809102
:10173000AA039091AB03019709F042CF8BE0E2DC62
:101740000197D9F48091800390918103892BA9F4AA
:101750008091780390917903019690937903809317
:10176000780361E081E055DB8AEA92E063DB68EEB2
:1017700073E080E090E0E7DD45DBC0918003D0912D
:101780008103209709F43FC08AE0BCDC019709F08F
:101790003AC060ED77E080E090E0D5DD61E08EE07A
:1017A000D9DC60E27EE480E090E0CDDD60E08EE0B8
:1017B000D1DC6AE570E08DE793E00E9471016AE593
:1017C00070E08AE793E00E94710168E97AE380E0C3
:1017D00090E0B9DD60E070E08DE793E00E94710178
:1017E00060E070E08AE793E00E94710160E08DE0C4
:1017F000B1DC61E08CE0AEDC2197D0938103C09333
:1018000080030E94D5026114710409F494CE0E94F1
:10181000000091CE40FF1CC0EBE8F3E080E090E0D8
:10182000448D411117C0E091EB03F091EC03E20FFE
:10183000F31F408156E0589FF001599FF00D11248D
:10184000E557FC4F448F368F258F10A2178EEBDBA8
:10185000E39444CF019636968A30910509F7F8CF84
:10186000CF931092FD031092FC0381E292E09093DB
:10187000FB038093FA0389E08093FE03CFEFC093CC
:10188000FF0388E08093000487E08093010486E0F2
:101890008093020485E08093030484E08093040431
:1018A0001092050410920604109207041092080486
:1018B0001092090481E0B8DC8091E3028033A0F447
:1018C00091E0980F9093E30280937D0390E0FC01F8
:1018D000EE0FFF1F8E0F9F1FFC01E851FD4F88EB9D
:1018E0009BE09283818302C0C0937D038091E302D9
:1018F0008033A0F491E0980F9093E30280937A03F1
:1019000090E0FC01EE0FFF1F8E0F9F1FFC01E851BE
:10191000FD4F88EB9BE09283818303C08FEF809320
:101920007A0310928D0310929103109290031092FB
:10193000920387E192E090938C0380938B03EBE812
:10194000F3E0148E10A2178E11A2369683E0E73CC6
:10195000F807B9F783E092E09093EE038093ED03EC
:1019600080E092E09093F0038093EF0384E0809313
:10197000F10383E08093F20387E092E09093EC031D
:101980008093EB038AE090E09093F4038093F30359
:1019900084EF91E09093F6038093F5031092F9039E
:1019A0001092F8031092E7031092E8031092E903F3
:1019B0001092EA031092F70389EB92E09093CD0224
:1019C0008093CC021092E2021092CE02CF91089541
:1019D000052E97FB16F400940FD057FD05D024D0A8
:1019E00007FC02D046F408C05095409530952195EB
:1019F0003F4F4F4F5F4F089590958095709561953B
:101A00007F4F8F4F9F4F089531D0A59F900DB49F6A
:101A1000900DA49F800D911D11240895B7FFF4CF60
:101A2000F3DF821B930B0895A1E21A2EAA1BBB1BA6
:101A3000FD010DC0AA1FBB1FEE1FFF1FA217B3079A
:101A4000E407F50720F0A21BB30BE40BF50B661FB0
:101A5000771F881F991F1A9469F760957095809574
:101A600090959B01AC01BD01CF010895A29FB001EB
:101A7000B39FC001A39F700D811D1124911DB29FC2
:101A8000700D811D1124911D08955058BB27AA2760
:101A90000ED008C1F9D030F0FED020F031F49F3FD5
:101AA00011F41EF4EEC00EF4E095E7FBE4C0E92F5C
:101AB0000AD180F3BA17620773078407950718F0F5
:101AC00071F49EF522C10EF4E0950B2EBA2FA02DD5
:101AD0000B01B90190010C01CA01A0011124FF27DB
:101AE000591B99F0593F50F4503E68F11A16F040D6
:101AF000A22F232F342F4427585FF3CF46953795D5
:101B00002795A795F0405395C9F77EF41F16BA0B99
:101B1000620B730B840BBAF09150A1F0FF0FBB1F47
:101B2000661F771F881FC2F70EC0BA0F621F731F90
:101B3000841F48F4879577956795B795F7959E3FED
:101B400008F0B3CF9395880F08F09927EE0F97957B
:101B5000879508956CD008F481E00895BCD088F092
:101B60009F5790F0B92F9927B751A0F0D1F0660F89
:101B7000771F881F991F1AF0BA95C9F712C0B130A4
:101B800081F0C3D0B1E00895C0C0672F782F8827B7
:101B9000B85F39F0B93FCCF3869577956795B395E3
:101BA000D9F73EF490958095709561957F4F8F4F52
:101BB0009F4F0895E89409C097FB3EF49095809557
:101BC000709561957F4F8F4F9F4F9923A9F0F92F03
:101BD00096E9BB279395F695879577956795B79581
:101BE000F111F8CFFAF4BB0F11F460FF1BC06F5F67
:101BF0007F4F8F4F9F4F16C0882311F096E911C079
:101C0000772321F09EE8872F762F05C0662371F099
:101C100096E8862F70E060E02AF09A95660F771FAD
:101C2000881FDAF7880F9695879597F90895990F89
:101C30000008550FAA0BE0E8FEEF16161706E80796
:101C4000F907C0F012161306E407F50798F0621BB7
:101C5000730B840B950B39F40A2661F0232B242B8C
:101C6000252B21F408950A2609F4A140A6958FEFAB
:101C7000811D811D089597F99F6780E870E060E0FD
:101C800008959FEF80EC089500240A941616170615
:101C900018060906089500240A941216130614065D
:101CA00005060895092E0394000C11F4882352F0C0
:101CB000BB0F40F4BF2B11F460FF04C06F5F7F4F78
:101CC0008F4F9F4F089557FD9058440F551F59F05F
:101CD0005F3F71F04795880F97FB991F61F09F3F19
:101CE00079F087950895121613061406551FF2CF42
:101CF0004695F1DF08C0161617061806991FF1CF92
:101D000086957105610508940895E894BB276627B8
:101D10007727CB0197F908958ADF08F48FEF0895AC
:101D20000BD0C0CFB1DF28F0B6DF18F0952309F053
:101D3000A2CFA7CF1124EACFC6DFA0F3959FD1F39E
:101D4000950F50E0551F629FF001729FBB27F00D69
:101D5000B11D639FAA27F00DB11DAA1F649F6627BE
:101D6000B00DA11D661F829F2227B00DA11D621F0D
:101D7000739FB00DA11D621F839FA00D611D221FC7
:101D8000749F3327A00D611D231F849F600D211DAB
:101D9000822F762F6A2F11249F5750408AF0E1F04E
:101DA00088234AF0EE0FFF1FBB1F661F771F881F97
:101DB00091505040A9F79E3F510570F05CCFA6CFDF
:101DC0005F3FECF3983EDCF3869577956795B79582
:101DD000F795E7959F5FC1F7FE2B880F911D9695AC
:101DE000879597F9089523DF880B990B0895991B20
:101DF00079E004C0991F961708F0961B881F7A9502
:101E0000C9F780950895EE0FFF1F881F8BBF0790BD
:101E1000F691E02D19942ADEB7FF0895821B930BEB
:0E1E2000089581E090E0F89400C0F894FFCFA0
:101E2E0011100F1213141531323334353637383949
:101E3E002A302300000000F002FA01F80100000031
:101E4E00006E064701F501F401484F504954414CCC
:101E5E002020534F5549535349004C494D49544541
:101E6E00442041434345535300202A202000202084
:101E7E00434845434B2054454D5020200020202000
:101E8E002054454D50202843292020202000204456
:101E9E004F4F52204F50454E494E47200020204272
:101EAE00555359202041524541202000414343457E
:101EBE005353202044454E49454400202057524F4D
:101ECE004E47202050494E202000454E544552206A
:101EDE00594F55522050494E0031393230006E6103
:0A1EEE006E00696E66006F766600F4
:020000023000CC
:10E000000D9489F10D94B2F10D94B2F10D94B2F129
:10E010000D94B2F10D94B2F10D94B2F10D94B2F1F0
:10E020000D94B2F10D94B2F10D94B2F10D94B2F1E0
:10E030000D94B2F10D94B2F10D94B2F10D94B2F1D0
:10E040000D94B2F10D94B2F10D94B2F10D94B2F1C0
:10E050000D94B2F10D94B2F10D94B2F10D94B2F1B0
:10E060000D94B2F10D94B2F10D94B2F10D94B2F1A0
:10E070000D94B2F10D94B2F10D94B2F10D94B2F190
:10E080000D94B2F10D94B2F10D94B2F10D94B2F180
:10E090000D94B2F10D94B2F10D94B2F10D94B2F170
:10E0A0000D94B2F10D94B2F10D94B2F10D94B2F160
:10E0B0000D94B2F10D94B2F10D94B2F10D94B2F150
:10E0C0000D94B2F10D94B2F10D94B2F10D94B2F140
:10E0D0000D94B2F10D94B2F10D94B2F10D94B2F130
:10E0E0000D94B2F141546D656761323536300041AF
:10E0F000726475696E6F206578706C6F72657220DE
:10E1000073746B3530305632206279204D4C530099
:10E11000426F6F746C6F616465723E004875683F52
:10E1200000436F6D70696C6564206F6E203D200048
:10E130004350552054797065202020203D20005FF9
:10E140005F4156525F415243485F5F3D2000415658
:10E1500052204C696243205665723D20004743437C
:10E160002056657273696F6E203D20004350552024
:10E1700049442020202020203D20004C6F7720663D
:10E18000757365202020203D20004869676820665F
:10E190007573652020203D200045787420667573D6
:10E1A00065202020203D20004C6F636B2066757336
:10E1B000652020203D20004D617220203720323024
:10E1C000313300312E362E3800342E332E350056A2
:10E1D00023202020414444522020206F7020636F70
:10E1E00064652020202020696E73747275637469E1
:10E1F0006F6E2061646472202020496E74657272B3
:10E20000757074006E6F20766563746F7200726A49
:10E210006D702020006A6D70200057686174207056
:10E220006F72743A00506F7274206E6F7420737541
:10E2300070706F72746564004D7573742062652030
:10E2400061206C6574746572002000577269747483
:10E25000696E672045450052656164696E672045B7
:10E26000450045452065727220636E743D00504F35
:10E27000525400303D5A65726F2061646472003FF1
:10E280003D43505520737461747300403D454550C3
:10E29000524F4D207465737400423D426C696E6B41
:10E2A000204C454400453D44756D70204545505215
:10E2B0004F4D00463D44756D7020464C415348001B
:10E2C000483D48656C70004C3D4C69737420492F83
:10E2D0004F20506F72747300513D51756974005234
:10E2E0003D44756D702052414D00563D73686F7707
:10E2F00020696E7465727275707420566563746FF0
:10E30000727300593D506F727420626C696E6B00BD
:10E310002A0011241FBECFEFD1E2DEBFCDBF01E046
:10E320000CBF12E0A0E0B2E0EEE1FDEF03E00BBFB6
:10E3300002C007900D92A030B107D9F712E0A0E01B
:10E34000B2E001C01D92AE30B107E1F70F9460F367
:10E350000D948DFE01E20EBF0FEF0DBF11241FBE05
:10E360000D9460F30D9400F020E030E040ED57E0B4
:10E3700005C0FA013197F1F72F5F3F4F2817390792
:10E38000C0F308959C01260F311DC901A0E0B0E043
:10E390002F5F3F4FABBFFC018791882361F08093D3
:10E3A000C6008091C00086FFFCCF8091C0008064D1
:10E3B0008093C000EACF08958DE08093C6008091DD
:10E3C000C00086FFFCCF8091C00080648093C000B5
:10E3D0008AE08093C6008091C00086FFFCCF8091C8
:10E3E000C00080648093C00008950F94C2F10F9420
:10E3F000DCF10895FC019081992359F09093C600B7
:10E400008091C00086FFFCCF8091C0008064809323
:10E41000C0003196992379F70895282F982F929567
:10E420009F70892F805D8A3308F0895F8093C600D2
:10E430008091C00086FFFCCF8091C00080648093F3
:10E44000C000822F8F70982F905D9A3308F0995FEB
:10E450009093C6008091C00086FFFCCF8091C000E1
:10E4600080648093C00008959C01FB01853691056E
:10E470001CF46330710594F0C90164E670E00F94F8
:10E480002EFE605D7F4F6093C6008091C00086FFC6
:10E49000FCCF8091C00080648093C0002B30310598
:10E4A00014F43297B4F0C90164E670E00F942EFEC4
:10E4B0006AE070E00F942EFE605D7F4F6093C600AF
:10E4C0008091C00086FFFCCF8091C0008064809363
:10E4D000C000C9016AE070E00F942EFEC0968093E0
:10E4E000C6008091C00086FFFCCF8091C000806490
:10E4F0008093C00008951F93182F8EE692EE60E07F
:10E500000F94C2F11093C6008091C00086FFFCCF2B
:10E510008091C00080648093C0000F94DCF11F9153
:10E5200008952F923F924F925F926F927F928F92B7
:10E530009F92AF92BF92CF92DF92EF92FF920F9392
:10E540001F93DF93CF93CDB7DEB762970FB6F894E2
:10E55000DEBF0FBECDBF382E622ECA01DB015C01CB
:10E560006D01772420E2222E2E010894411C511CBB
:10E570008BC081E0A81680E0B80681E0C80680E084
:10E58000D80628F0C601AA27BB270F940DF2BB2797
:10E59000AD2D9C2D8B2D0F940DF28A2D0F940DF225
:10E5A0002092C6008091C00086FFFCCF8091C00001
:10E5B00080648093C0009DE29093C6008091C0006B
:10E5C00086FFFCCF8091C00080648093C0002092C1
:10E5D000C6008091C00086FFFCCF8091C00080649F
:10E5E0008093C00019828601750188249924A1E0D6
:10E5F0003A1651F03A1620F0B2E03B1661F409C029
:10E600000BBFF701779007C0C7010F9477FE782EF4
:10E6100002C0F7017080872D0F940DF22092C60082
:10E620008091C00086FFFCCF8091C0008064809301
:10E63000C000872D8052F401EF70F0708F3520F408
:10E64000E40DF51D708204C0E40DF51D8EE280839B
:10E650000894E11CF11C011D111D0894811C911CE2
:10E6600090E18916910409F0C2CF80E190E0A0E02A
:10E67000B0E0A80EB91ECA1EDB1E198AC2010F9493
:10E68000FAF10F94DCF16A94662009F072CF629679
:10E690000FB6F894DEBF0FBECDBFCF91DF911F91B3
:10E6A0000F91FF90EF90DF90CF90BF90AF909F9031
:10E6B0008F907F906F905F904F903F902F90089534
:10E6C0002F923F924F925F926F927F928F929F9282
:10E6D000AF92BF92CF92DF92EF92FF920F931F9370
:10E6E000DF93CF93CDB7DEB7CD53D1400FB6F894BB
:10E6F000DEBF0FBECDBF01E20EBF0FEF0DBF94B75F
:10E70000F894A89514BE80916000886180936000A1
:10E7100010926000789493FF05C0E0910002F091A0
:10E7200001021995279A2F9A8091C00082608093E8
:10E73000C00080E18093C40088E18093C1000000A4
:10E74000EE24FF24870144E0A42EB12CCC24DD2448
:10E7500024C0C5010197F1F70894E11CF11C011DCB
:10E76000111D21E2E2162EE4F20620E0020720E06D
:10E77000120718F031E0C32ED12CC801B70127ECE5
:10E780003BE140E050E00F9441FE611571058105C9
:10E79000910519F485B1805885B98091C00087FD35
:10E7A00003C0C114D104A9F2A6014F5F5F4FC25E3E
:10E7B000DE4F59834883CE51D140C25EDE4F8881FF
:10E7C0009981CE51D140019711F00D9410FEC05D9A
:10E7D000DE4F19821882C053D14060E0C15DDE4F28
:10E7E0001882CF52D14088249924C35DDE4F19820C
:10E7F0001882CD52D140C05EDE4F188219821A8233
:10E800001B82C052D140CE5CDE4F188219821A8220
:10E810001B82C253D140EE24FF2487010BBFF701B6
:10E8200007911691C45CDE4F19830883CC53D14005
:10E830000D940BFEC25EDE4F28813981CE51D1404E
:10E840002130310509F52091C600C25EDE4F1982E4
:10E850001882CE51D14022C02F5F3F4F4F4F5F4FA4
:10E86000213082E138078AE7480780E0580780F0C6
:10E87000C45CDE4FE881F981CC53D140EF5FFF4F9C
:10E8800019F0EE27FF27099420E030E040E050E047
:10E890008091C00087FFE0CF2091C600C35DDE4FAE
:10E8A00048815981CD52D1404F5F5F4FC35DDE4FEC
:10E8B00059834883CD52D140213209F063C64A3092
:10E8C000510508F05FC60894811C911C53E0851621
:10E8D000910409F059C600E010E018C081E280936D
:10E8E000C6008091C00086FFFCCF8091C00080648C
:10E8F0008093C0002F5F3F4F2931310579F70F9486
:10E90000DCF10F5F1F4F0530110519F020E030E0FA
:10E91000E5CF10920A0210920B0210920C02109294
:10E920000D02109206021092070210920802109235
:10E930000902109202021092030210920402109235
:10E9400005028FEE90EE60E00F94F5F180E191EE1C
:10E9500060E00F94C2F18091C00087FFFCCF9091DE
:10E96000C600903608F09F759032B8F09093C600BC
:10E970008091C00086FFFCCF8091C00080648093AE
:10E98000C000A0E2A093C6008091C00086FFFCCF2B
:10E990008091C00080648093C000983409F4D7C18E
:10E9A0009934B8F4923409F459C1933458F490333B
:10E9B00019F1903308F4E3C59F33A1F1903409F0C5
:10E9C000DEC5BDC0953409F470C1963409F0D7C5D1
:10E9D00098C1923509F42BC2933538F49C3409F46C
:10E9E000F5C1913509F0CBC518C2963509F445C279
:10E9F000993509F0C4C567C483E792EE62E00F94CD
:10EA0000F5F110920602109207021092080210927D
:10EA1000090210920A0210920B0210920C0210923C
:10EA20000D0213C18FE792EE62E00F94F5F18FEEC5
:10EA300090EE60E00F94F5F181E291EE60E00F94CA
:10EA4000C2F187EB91EE60E00F94F5F180E391EE77
:10EA500060E00F94C2F184EE90EE60E00F94F5F167
:10EA60008FE391EE60E00F94C2F186E090E061E008
:10EA700070E00F9434F20F94DCF18DE591EE60E0DC
:10EA80000F94C2F189EC91EE60E00F94F5F18EE401
:10EA900091EE60E00F94C2F183EC91EE60E00F9490
:10EAA000F5F18CE691EE60E00F94C2F18EE10F94E7
:10EAB0000DF288E90F940DF281E00F940DF20F949E
:10EAC000DCF18BE791EE60E00F94C2F119E0E0E039
:10EAD000F0E010935700E4918E2F0F940DF20F94F5
:10EAE000DCF18AE891EE60E00F94C2F1E3E0F0E03F
:10EAF00010935700E4918E2F0F940DF20F94DCF1D8
:10EB000089E991EE60E00F94C2F1E2E0F0E0109349
:10EB10005700E4918E2F0F940DF20F94DCF188EAE8
:10EB200091EE60E00F94C2F1E1E0F0E01093570045
:10EB30001491812F0F940DF20F94DCF107CF8BE825
:10EB400092EE62E00F94F5F18BE492EE60E00F94A8
:10EB5000F5F10F94DCF100E010E019C0C8016F2D51
:10EB60000F947FFEFF2031F489E492EE60E00F9471
:10EB7000C2F10BC0F092C6008091C00086FFFCCFAE
:10EB80008091C00080648093C0000F5F1F4FC80158
:10EB900081519F41A0E0B0E0ABBFFC01F790BAE229
:10EBA000FB1621F0E2E000301E07C1F60F94DCF105
:10EBB0000F94DCF187E592EE60E00F94F5F10F948D
:10EBC000DCF1CC24DD2400E010E01EC0C8010F946D
:10EBD00077FEF82E882331F489E492EE60E00F94FA
:10EBE000C2F10BC08093C6008091C00086FFFCCFAD
:10EBF0008091C00080648093C000FE1419F00894D6
:10EC0000C11CD11C0F5F1F4FC80181519F41A0E063
:10EC1000B0E0ABBFFC01E790FAE2EF1621F022E092
:10EC20000030120799F60F94DCF10F94DCF182E6C4
:10EC300092EE60E00F94C2F1C60161E070E00F94C3
:10EC400034F20F94DCF10F94DCF110920202109276
:10EC50000302109204021092050278CE89E992EE26
:10EC600062E00F94F5F1279A2F9A16C02F9880E052
:10EC700090E0E0EDF7E03197F1F7019684369105E9
:10EC8000C1F72F9A80E090E0E0EDF7E03197F1F7DF
:10EC9000019684369105C1F78091C00087FFE6CFC9
:10ECA0008091C00087FFFCCF64C485EA92EE62E0E9
:10ECB0000F94F5F140910202509103026091040219
:10ECC0007091050281E020E10F9491F2809102029F
:10ECD00090910302A0910402B091050280509F4FD1
:10ECE000AF4FBF4F8093020290930302A0930402A0
:10ECF000B093050280509041A040B04008F426CE69
:10ED0000A4CF83EB92EE62E00F94F5F140910602FE
:10ED100050910702609108027091090280E020E1A1
:10ED20000F9491F28091060290910702A09108023F
:10ED3000B091090280509F4FAF4FBF4F80930602A2
:10ED400090930702A0930802B0930902FFCD80ECD4
:10ED500092EE62E00F94F5F183E792EE60E00F949B
:10ED6000F5F18FE792EE60E00F94F5F18BE892EE0B
:10ED700060E00F94F5F189E992EE60E00F94F5F10F
:10ED800085EA92EE60E00F94F5F183EB92EE60E09D
:10ED90000F94F5F180EC92EE60E00F94F5F187ECC2
:10EDA00092EE60E00F94F5F188ED92EE60E00F9442
:10EDB000F5F18FED92EE60E00F94F5F18AEE92EEB0
:10EDC00060E00F94F5F183E093EEBDCD87EC92EE19
:10EDD00062E00F94F5F181E40F947BF282E40F94EA
:10EDE0007BF283E40F947BF284E40F947BF285E45E
:10EDF0000F947BF286E40F947BF287E40F947BF20E
:10EE000088E40F947BF28AE40F947BF28BE40F94F6
:10EE10007BF28CE40F947BF299CD88ED92EE62E068
:10EE20000F94F5F1772473948824992409C48FED05
:10EE300092EE62E00F94F5F140910A0250910B02BC
:10EE400060910C0270910D0282E020E10F9491F22A
:10EE500080910A0290910B02A0910C02B0910D02D8
:10EE600080509F4FAF4FBF4F80930A0290930B0289
:10EE7000A0930C02B0930D0269CD8AEE92EE62E08F
:10EE80000F94F5F184EE90EE60E00F94F5F18FECC5
:10EE900091EE60E00F94F5F1662477244301CC5D98
:10EEA000DE4F19821882C452D140D401C301B695F5
:10EEB000A79597958795CA5DDE4F88839983AA8326
:10EEC000BB83C652D140CC5DDE4FA881B981C4520C
:10EED000D1401196CC5DDE4FB983A883C452D14096
:10EEE000CD0162E070E00F9434F2B0E2B093C6005E
:10EEF0008091C00086FFFCCF8091C0008064809329
:10EF0000C000EDE2E093C6008091C00086FFFCCF18
:10EF10008091C00080648093C000F0E2F093C6004E
:10EF20008091C00086FFFCCF8091C00080648093F8
:10EF3000C000CA5DDE4FE880F9800A811B81C6529D
:10EF4000D140BB27A12F902F8F2D0F940DF2CA5DBA
:10EF5000DE4F8881C652D1400F940DF2B0E2FB2EF5
:10EF6000F092C6008091C00086FFFCCF8091C00067
:10EF700080648093C0000DE30093C6008091C000C0
:10EF800086FFFCCF8091C00080648093C00010E2B7
:10EF90001093C6008091C00086FFFCCF8091C00016
:10EFA00080648093C0008BBEF3012791C65DDE4F65
:10EFB0002883CA52D140A22EBB24CC24DD2408943D
:10EFC000611C711C811C911C8BBEF3018791282E42
:10EFD0003324442455240894611C711C811C911C09
:10EFE0008BBEF3013791C55DDE4F3883CB52D140E4
:10EFF0000894611C711C811C911C8BBEF30147910C
:10F00000C45DDE4F4883CC52D140ADEFEA2EAFEF66
:10F01000FA2EAFEF0A2FAFEF1A2F6E0C7F1C801E57
:10F02000911E142D032DF22CEE24EA0CFB1C0C1D5A
:10F030001D1D0F940DF220E22093C6008091C000A8
:10F0400086FFFCCF8091C00080648093C000C65DC5
:10F05000DE4F8881CA52D1400F940DF230E23093D6
:10F06000C6008091C00086FFFCCF8091C000806404
:10F070008093C000C45DDE4F8881CC52D1400F9494
:10F080000DF240E24093C6008091C00086FFFCCFA5
:10F090008091C00080648093C000C55DDE4F888190
:10F0A000CB52D1400F940DF250E25093C6008091A4
:10F0B000C00086FFFCCF8091C00080648093C000B8
:10F0C0008FEFE8168FEFF80680E0080780E018075A
:10F0D00031F484E092EE60E00F94C2F1DFC0D80119
:10F0E000C7018070907CA070B0708050904CA040A0
:10F0F000B040D1F52FEF3FE340E050E0E222F322B1
:10F1000004231523CA5DDE4FA880B980CA80DB8046
:10F11000C652D140AE0CBF1CC01ED11EAA0CBB1CD7
:10F12000CC1CDD1C8EE092EE60E00F94C2F1BB2798
:10F13000A12F902F8F2D0F940DF28E2D0F940DF285
:10F1400030E23093C6008091C00086FFFCCF8091F2
:10F15000C00080648093C0004EE34093C60080915D
:10F16000C00086FFFCCF87C08EE09EEFA0E0B0E03D
:10F17000E822F9220A231B239CE0E91694E9F90608
:10F1800090E0090790E0190709F088C0C45DDE4FE0
:10F19000A881CC52D140EA2EFF2400E010E0102FCD
:10F1A0000F2DFE2CEE24C55DDE4FB881CB52D14031
:10F1B000EB0EF11C011D111DD601C501817090706F
:10F1C000A070B070DC0199278827E80EF91E0A1F8D
:10F1D0001B1F20EF30E040E050E0A222B322C42207
:10F1E000D52241E1AA0CBB1CCC1CDD1C4A95D1F7F1
:10F1F000EA0CFB1C0C1D1D1D81E090E0A0E0B0E0BE
:10F20000282239224A225B2235E1220C331C441C7D
:10F21000551C3A95D1F7E20CF31C041D151D57013E
:10F220006801AA0CBB1CCC1CDD1C85E192EE60E0E1
:10F230000F94C2F1C801AA27BB270F940DF2BB2778
:10F24000A12F902F8F2D0F940DF28E2D0F940DF274
:10F2500090E29093C6008091C00086FFFCCF809121
:10F26000C00080648093C000AEE3A093C60080918C
:10F27000C00086FFFCCF8091C00080648093C000F6
:10F28000C601AA27BB270F940DF2BB27AD2D9C2DDD
:10F290008B2D0F940DF28A2D0F940DF20F94DCF14B
:10F2A000CC5DDE4FE881F981C452D140F99709F471
:10F2B0004DCBF4E0EF2EF12C012D112D6E0C7F1CA7
:10F2C000801E911EF2CD83E093EE62E00F94F5F183
:10F2D0008AE192EE60E00F94C2F18091C00087FF56
:10F2E000FCCF1091C6001F751093C6008091C0001E
:10F2F00086FFFCCF8091C00080648093C0000F9493
:10F30000DCF1812F81548A3108F036C1163409F4BA
:10F3100095C0173490F4133409F44EC0143430F40B
:10F320001134F1F0123409F01DC130C0143409F465
:10F3300059C0153409F016C16BC01A3409F4C4C0A1
:10F340001B3438F4173409F48FC0183409F00AC19B
:10F35000A1C01B3409F4D2C01C3409F003C1E8C0B9
:10F360008FEF81B90DC082B1809582B980E090E0C5
:10F37000E0EDF7E03197F1F70196883C9105C1F790
:10F380008091C00087FFEFCF12B8EFC08FEF84B934
:10F390000DC085B1809585B980E090E0E0EDF7E0A3
:10F3A0003197F1F70196883C9105C1F78091C00033
:10F3B00087FFEFCF15B8D9C08FEF87B90DC088B1DF
:10F3C000809588B980E090E0E0EDF7E03197F1F7C3
:10F3D0000196883C9105C1F78091C00087FFEFCF6F
:10F3E00018B8C3C08FEF8AB90DC08BB180958BB9A7
:10F3F00080E090E0E0EDF7E03197F1F70196883C8E
:10F400009105C1F78091C00087FFEFCF1BB8ADC059
:10F410008FEF8DB90DC08EB180958EB980E090E0F0
:10F42000E0EDF7E03197F1F70196883C9105C1F7DF
:10F430008091C00087FFEFCF1EB897C08FEF80BBD1
:10F440000DC081B3809581BB80E090E0E0EDF7E0F6
:10F450003197F1F70196883C9105C1F78091C00082
:10F4600087FFEFCF11BA81C08FEF83BB0DC084B38C
:10F47000809584BB80E090E0E0EDF7E03197F1F714
:10F480000196883C9105C1F78091C00087FFEFCFBE
:10F4900014BA6BC08FEF809301010FC080910201FD
:10F4A00080958093020180E090E0E0EDF7E03197F5
:10F4B000F1F70196883C9105C1F78091C00087FF64
:10F4C000EDCF1092020151C08FEF809304010FC065
:10F4D0008091050180958093050180E090E0E0ED4A
:10F4E000F7E03197F1F70196883C9105C1F78091DB
:10F4F000C00087FFEDCF1092050137C08FEF8093DA
:10F5000007010FC08091080180958093080180E079
:10F5100090E0E0EDF7E03197F1F70196883C910536
:10F52000C1F78091C00087FFEDCF109208011DC088
:10F530008FEF80930A010FC080910B01809580931B
:10F540000B0180E090E0E0EDF7E03197F1F70196F4
:10F55000883C9105C1F78091C00087FFEDCF1092E4
:10F560000B0103C085E292EEEEC98091C00087FFD7
:10F57000FCCF8091C600EAC988E392EEE4C98CE131
:10F5800091EEE1C988249924933011F1943028F444
:10F59000913089F09230B8F408C0953061F195301F
:10F5A000F0F0963009F048C043C02B3109F042C951
:10F5B00091E06BE13FC96227C15DDE4F2883CF52E6
:10F5C000D14092E037C9B22FA0E0622793E032C960
:10F5D000822F90E0A82BB92B622794E02BC92E3004
:10F5E00009F039C3622795E0C05DDE4F19821882A9
:10F5F000C053D1401FC9E1E0F0E0EC0FFD1FC05D3A
:10F60000DE4F08811981C053D140E00FF11F2083E4
:10F610000F5F1F4FC05DDE4F19830883C053D14079
:10F6200062270A171B0709F005C9D80196E002C92D
:10F63000261709F010C303C0973009F0FBC87724E0
:10F640009981933109F412C19431C8F4963009F4C8
:10F65000D8C0973050F4923009F406C1933009F4C1
:10F660006DC0913009F059C253C0913109F477C08F
:10F67000923108F0BBC0903109F04FC2F5C098310B
:10F6800009F487C0993150F4953109F4EFC09531F0
:10F6900008F4C6C1963109F040C2C2C19A3109F4DA
:10F6A0006CC09A3108F491C09B3109F45BC09D3164
:10F6B00009F033C29D81903359F48F81882311F46E
:10F6C0009EE11CC0813011F091E018C098E916C08D
:10F6D000892F807591F0903539F4E0E0F0E089E011
:10F6E0008093570094910AC0983539F4E3E0F0E034
:10F6F00089E080935700949101C090E01A821B82A8
:10F700008D818C831D829E831F8227E030E009C299
:10F710001A8288E08B8381E48C8386E58D8382E581
:10F720008E8389E48F8383E5888780E589878FE5E9
:10F730008A8782E38B872BE030E0F3C18A818139AD
:10F7400041F0823941F0803911F48FE005C080E04A
:10F7500003C082E001C08AE01A828B8344C0772410
:10F76000739482C08D81882311F48EE12CC0813086
:10F7700011F081E028C088E926C01A82E1E0F0E0BB
:10F7800089E08093570084918B831C8224E030E0D1
:10F79000C8C18B81803589F48C81883039F4E2E0EE
:10F7A000F0E089E08093570084910DC0E0E0F0E044
:10F7B00089E080935700849106C0E3E0F0E089E09F
:10F7C0008093570084911A82DFCF8D81836C99E0FA
:10F7D000E1E0F0E0082E90935700E89507B600FCB2
:10F7E000FDCF1A821B8223E030E09BC180EC8A832C
:10F7F000CE5CDE4F188219821A821B82C253D1401E
:10F800008EC18A8190E0A0E0B0E0582F44273327D2
:10F8100022278B8190E0A0E0B0E0DC0199278827C7
:10F82000282B392B4A2B5B2B8D8190E0A0E0B0E098
:10F83000282B392B4A2B5B2B8C8190E0A0E0B0E089
:10F84000BA2FA92F982F8827282B392B4A2B5B2BCF
:10F85000220F331F441F551FC05EDE4F288339839C
:10F860004A835B83C052D1401A8259C13A81C95C34
:10F87000DE4F3883C753D140CA5CDE4F1882C6536F
:10F88000D1408B81C82EDD24CA5CDE4F488159816E
:10F89000C653D140C42AD52A933109F082C0CE5C28
:10F8A000DE4F88819981AA81BB81C253D1408050AB
:10F8B000904CA340B04030F583E0CE5CDE4FE88052
:10F8C000F9800A811B81C253D140F70100935B008C
:10F8D00080935700E89507B600FCFDCFCE5CDE4F65
:10F8E000088119812A813B81C253D14000501F4FAA
:10F8F0002F4F3F4FCE5CDE4F088319832A833B8313
:10F90000C253D140C05EDE4F488159816A817B81FC
:10F91000C052D140DE011B9631E08C9111962C91A2
:10F9200011971296C75CDE4F2883C953D140C85C3B
:10F93000DE4F1882C853D14090E0C85CDE4FE881AA
:10F94000F981C853D1408E2B9F2B0C01FA01609393
:10F950005B0030935700E89511244E5F5F4F6F4F67
:10F960007F4F0EEFE02E0FEFF02ECE0CDF1CC114F8
:10F97000D10499F685E0C05EDE4F088119812A81A5
:10F980003B81C052D140F80120935B008093570027
:10F99000E89507B600FCFDCF81E180935700E8951C
:10F9A00035C0C05EDE4F88819981AA81BB81C0527B
:10F9B000D140B695A795979587957C018601ABE0D8
:10F9C000AA2EB12CAC0EBD1E0BC0D5016D915D01F0
:10F9D000C7010F947FFE0894E11CF11C01501040F8
:10F9E0000115110591F7A60160E070E0440F551F65
:10F9F000661F771FC05EDE4FE880F9800A811B8199
:10FA0000C052D1404E0D5F1D601F711F1A82C05E33
:10FA1000DE4F488359836A837B83C052D1407FC0C5
:10FA2000FA80C55CDE4FF882CB53D140C65CDE4F16
:10FA30001882CA53D1408B81C82EDD24C65CDE4FAC
:10FA400008811981CA53D140C02AD12A1A828981DA
:10FA5000BE016D5F7F4F843121F59601C05EDE4FA0
:10FA6000E880F9800A811B81C052D1400BBFF701A9
:10FA700087919691DB018C9311969C936E5F7F4FDB
:10FA8000D801C7010296A11DB11DC05EDE4F88835B
:10FA90009983AA83BB83C052D14022503040F1F6F3
:10FAA00036C0C05EDE4F288139814A815B81C052F9
:10FAB000D1400894C108D108760100E010E0089414
:10FAC000C11CD11C0894E11CF11C011D111DE20E8A
:10FAD000F31E041F151F21BDBB27A52F942F832FB5
:10FAE00082BD2F5F3F4F4F4F5F4FF89A80B5DB01CC
:10FAF0008D93BD012E153F054007510761F7C05E8C
:10FB0000DE4F288339834A835B83C052D1409601FC
:10FB10002D5F3F4FFB01108204C080EC8A8322E0FE
:10FB200030E08BE18093C6008091C00086FFFCCF5F
:10FB30008091C00080648093C000C15DDE4FF88179
:10FB4000CF52D140F093C6008091C00086FFFCCF19
:10FB50008091C00080648093C000432F3093C60022
:10FB60008091C00086FFFCCF8091C00080648093AC
:10FB7000C000922F2093C6008091C00086FFFCCF6A
:10FB80008091C00080648093C0008EE08093C600A6
:10FB90008091C00086FFFCCF8091C000806480937C
:10FBA000C00065E1C15DDE4FE880CF52D1406E25D7
:10FBB00069276427FE01319610C090819093C6009A
:10FBC0008091C00086FFFCCF31968091C000806498
:10FBD0008093C0006927215030402115310569F715
:10FBE0006093C6008091C00086FFFCCF8091C0006A
:10FBF00080648093C00085B1805885B9772081F4F6
:10FC0000C15DDE4F0881CF52D1400F5FC15DDE4F35
:10FC10000883CF52D14090E0A0E0B0E00D941AF4F8
:10FC200027982F9880E090E020ED37E0F901319798
:10FC3000F1F7019684369105C9F700008091C00064
:10FC40008D7F8093C00081E180935700E895EE2777
:10FC5000FF270994FFCF90E00D941AF497FB092E2B
:10FC600007260AD077FD04D02ED006D000201AF443
:10FC7000709561957F4F0895F6F7909581959F4F08
:10FC80000895A1E21A2EAA1BBB1BFD010DC0AA1FDD
:10FC9000BB1FEE1FFF1FA217B307E407F50720F0F5
:10FCA000A21BB30BE40BF50B661F771F881F991F70
:10FCB0001A9469F760957095809590959B01AC01B9
:10FCC000BD01CF010895AA1BBB1B51E107C0AA1FAC
:10FCD000BB1FA617B70710F0A61BB70B881F991FED
:10FCE0005A95A9F780959095BC01CD010895F99991
:10FCF000FECF92BD81BDF89A992780B50895262F31
:10FD0000F999FECF1FBA92BD81BD20BD0FB6F89400
:0EFD1000FA9AF99A0FBE01960895F894FFCF63
:040000033000E000E9
:00000001FF
